{
  "_format": "hh-sol-artifact-1",
  "contractName": "Farmer",
  "sourceName": "contracts/Farmer.sol",
  "abi": [
    {
      "anonymous": false,
      "inputs": [
        {
          "indexed": false,
          "internalType": "uint256",
          "name": "productId",
          "type": "uint256"
        },
        {
          "indexed": false,
          "internalType": "address",
          "name": "farmer",
          "type": "address"
        }
      ],
      "name": "ProductAdded",
      "type": "event"
    },
    {
      "anonymous": false,
      "inputs": [
        {
          "indexed": false,
          "internalType": "uint256",
          "name": "productId",
          "type": "uint256"
        },
        {
          "indexed": false,
          "internalType": "uint256",
          "name": "amount",
          "type": "uint256"
        },
        {
          "indexed": false,
          "internalType": "address",
          "name": "buyer",
          "type": "address"
        }
      ],
      "name": "ProductBought",
      "type": "event"
    },
    {
      "inputs": [
        {
          "internalType": "string",
          "name": "_image",
          "type": "string"
        },
        {
          "internalType": "string",
          "name": "_Desc",
          "type": "string"
        },
        {
          "internalType": "uint256",
          "name": "_stock",
          "type": "uint256"
        },
        {
          "internalType": "string",
          "name": "_title",
          "type": "string"
        },
        {
          "internalType": "uint256",
          "name": "_price",
          "type": "uint256"
        },
        {
          "internalType": "string",
          "name": "_typeofprod",
          "type": "string"
        }
      ],
      "name": "AddProduct",
      "outputs": [
        {
          "internalType": "uint256",
          "name": "",
          "type": "uint256"
        }
      ],
      "stateMutability": "nonpayable",
      "type": "function"
    },
    {
      "inputs": [
        {
          "internalType": "uint256",
          "name": "_id",
          "type": "uint256"
        },
        {
          "internalType": "uint256",
          "name": "kg",
          "type": "uint256"
        }
      ],
      "name": "Buyer",
      "outputs": [
        {
          "internalType": "uint256",
          "name": "",
          "type": "uint256"
        },
        {
          "internalType": "uint256",
          "name": "",
          "type": "uint256"
        }
      ],
      "stateMutability": "payable",
      "type": "function"
    },
    {
      "inputs": [],
      "name": "GetAllProducts",
      "outputs": [
        {
          "components": [
            {
              "internalType": "uint256",
              "name": "id",
              "type": "uint256"
            },
            {
              "internalType": "string",
              "name": "Image",
              "type": "string"
            },
            {
              "internalType": "string",
              "name": "Description",
              "type": "string"
            },
            {
              "internalType": "uint256",
              "name": "Stock",
              "type": "uint256"
            },
            {
              "internalType": "string",
              "name": "Title",
              "type": "string"
            },
            {
              "internalType": "uint256",
              "name": "Price",
              "type": "uint256"
            },
            {
              "internalType": "address payable",
              "name": "Farmer",
              "type": "address"
            },
            {
              "internalType": "string",
              "name": "TypeOfProduct",
              "type": "string"
            },
            {
              "internalType": "uint256",
              "name": "StockLeft",
              "type": "uint256"
            }
          ],
          "internalType": "struct Farmer.Product[]",
          "name": "",
          "type": "tuple[]"
        }
      ],
      "stateMutability": "view",
      "type": "function"
    },
    {
      "inputs": [
        {
          "internalType": "address",
          "name": "",
          "type": "address"
        },
        {
          "internalType": "uint256",
          "name": "",
          "type": "uint256"
        }
      ],
      "name": "MyProducts",
      "outputs": [
        {
          "internalType": "uint256",
          "name": "",
          "type": "uint256"
        }
      ],
      "stateMutability": "view",
      "type": "function"
    },
    {
      "inputs": [],
      "name": "buyerCount",
      "outputs": [
        {
          "internalType": "uint256",
          "name": "",
          "type": "uint256"
        }
      ],
      "stateMutability": "view",
      "type": "function"
    },
    {
      "inputs": [],
      "name": "productCount",
      "outputs": [
        {
          "internalType": "uint256",
          "name": "",
          "type": "uint256"
        }
      ],
      "stateMutability": "view",
      "type": "function"
    },
    {
      "inputs": [
        {
          "internalType": "uint256",
          "name": "",
          "type": "uint256"
        }
      ],
      "name": "products",
      "outputs": [
        {
          "internalType": "uint256",
          "name": "id",
          "type": "uint256"
        },
        {
          "internalType": "string",
          "name": "Image",
          "type": "string"
        },
        {
          "internalType": "string",
          "name": "Description",
          "type": "string"
        },
        {
          "internalType": "uint256",
          "name": "Stock",
          "type": "uint256"
        },
        {
          "internalType": "string",
          "name": "Title",
          "type": "string"
        },
        {
          "internalType": "uint256",
          "name": "Price",
          "type": "uint256"
        },
        {
          "internalType": "address payable",
          "name": "Farmer",
          "type": "address"
        },
        {
          "internalType": "string",
          "name": "TypeOfProduct",
          "type": "string"
        },
        {
          "internalType": "uint256",
          "name": "StockLeft",
          "type": "uint256"
        }
      ],
      "stateMutability": "view",
      "type": "function"
    }
  ],
  "bytecode": "0x60806040526000600255600060035534801561001a57600080fd5b50611af58061002a6000396000f3fe6080604052600436106100705760003560e01c806381a17a4a1161004e57806381a17a4a146101345780639e0cea051461015f578063ba0a0cdb1461018a578063e0f6ef87146101bb57610070565b806322412ded146100755780636b7ff01a146100b25780637acc0b20146100ef575b600080fd5b34801561008157600080fd5b5061009c60048036038101906100979190610dae565b6101e6565b6040516100a99190610dfd565b60405180910390f35b3480156100be57600080fd5b506100d960048036038101906100d49190610f5e565b610217565b6040516100e69190610dfd565b60405180910390f35b3480156100fb57600080fd5b506101166004803603810190610111919061105b565b61041a565b60405161012b99989796959493929190611128565b60405180910390f35b34801561014057600080fd5b506101496106a8565b60405161015691906113d5565b60405180910390f35b34801561016b57600080fd5b50610174610a3d565b6040516101819190610dfd565b60405180910390f35b6101a4600480360381019061019f91906113f7565b610a43565b6040516101b2929190611437565b60405180910390f35b3480156101c757600080fd5b506101d0610c9e565b6040516101dd9190610dfd565b60405180910390f35b6001602052816000526040600020818154811061020257600080fd5b90600052602060002001600091509150505481565b60006002600081548092919061022c9061148f565b919050555060405180610120016040528060025481526020018881526020018781526020018681526020018581526020018481526020013373ffffffffffffffffffffffffffffffffffffffff1681526020018381526020018681525060008060025481526020019081526020016000206000820151816000015560208201518160010190816102bc91906116e3565b5060408201518160020190816102d291906116e3565b506060820151816003015560808201518160040190816102f291906116e3565b5060a0820151816005015560c08201518160060160006101000a81548173ffffffffffffffffffffffffffffffffffffffff021916908373ffffffffffffffffffffffffffffffffffffffff16021790555060e082015181600701908161035991906116e3565b506101008201518160080155905050600160003373ffffffffffffffffffffffffffffffffffffffff1673ffffffffffffffffffffffffffffffffffffffff16815260200190815260200160002060025490806001815401808255809150506001900390600052602060002001600090919091909150557f61394ce83505fd053362beef6b6476dc5cdd4e4dd515dd026ee6ed7f4d473cd0600254336040516104039291906117c4565b60405180910390a160025490509695505050505050565b600060205280600052604060002060009150905080600001549080600101805461044390611506565b80601f016020809104026020016040519081016040528092919081815260200182805461046f90611506565b80156104bc5780601f10610491576101008083540402835291602001916104bc565b820191906000526020600020905b81548152906001019060200180831161049f57829003601f168201915b5050505050908060020180546104d190611506565b80601f01602080910402602001604051908101604052809291908181526020018280546104fd90611506565b801561054a5780601f1061051f5761010080835404028352916020019161054a565b820191906000526020600020905b81548152906001019060200180831161052d57829003601f168201915b50505050509080600301549080600401805461056590611506565b80601f016020809104026020016040519081016040528092919081815260200182805461059190611506565b80156105de5780601f106105b3576101008083540402835291602001916105de565b820191906000526020600020905b8154815290600101906020018083116105c157829003601f168201915b5050505050908060050154908060060160009054906101000a900473ffffffffffffffffffffffffffffffffffffffff169080600701805461061f90611506565b80601f016020809104026020016040519081016040528092919081815260200182805461064b90611506565b80156106985780601f1061066d57610100808354040283529160200191610698565b820191906000526020600020905b81548152906001019060200180831161067b57829003601f168201915b5050505050908060080154905089565b6060600060025467ffffffffffffffff8111156106c8576106c7610e33565b5b60405190808252806020026020018201604052801561070157816020015b6106ee610ca4565b8152602001906001900390816106e65790505b5090506000600190505b6002548111610a3557600080828152602001908152602001600020604051806101200160405290816000820154815260200160018201805461074c90611506565b80601f016020809104026020016040519081016040528092919081815260200182805461077890611506565b80156107c55780601f1061079a576101008083540402835291602001916107c5565b820191906000526020600020905b8154815290600101906020018083116107a857829003601f168201915b505050505081526020016002820180546107de90611506565b80601f016020809104026020016040519081016040528092919081815260200182805461080a90611506565b80156108575780601f1061082c57610100808354040283529160200191610857565b820191906000526020600020905b81548152906001019060200180831161083a57829003601f168201915b505050505081526020016003820154815260200160048201805461087a90611506565b80601f01602080910402602001604051908101604052809291908181526020018280546108a690611506565b80156108f35780601f106108c8576101008083540402835291602001916108f3565b820191906000526020600020905b8154815290600101906020018083116108d657829003601f168201915b50505050508152602001600582015481526020016006820160009054906101000a900473ffffffffffffffffffffffffffffffffffffffff1673ffffffffffffffffffffffffffffffffffffffff1673ffffffffffffffffffffffffffffffffffffffff16815260200160078201805461096c90611506565b80601f016020809104026020016040519081016040528092919081815260200182805461099890611506565b80156109e55780601f106109ba576101008083540402835291602001916109e5565b820191906000526020600020905b8154815290600101906020018083116109c857829003601f168201915b5050505050815260200160088201548152505082600183610a0691906117ed565b81518110610a1757610a16611821565b5b60200260200101819052508080610a2d9061148f565b91505061070b565b508091505090565b60035481565b60008060008060008681526020019081526020016000209050600085118015610a6e57506002548511155b610aad576040517f08c379a0000000000000000000000000000000000000000000000000000000008152600401610aa49061189c565b60405180910390fd5b8381600801541015610af4576040517f08c379a0000000000000000000000000000000000000000000000000000000008152600401610aeb90611908565b60405180910390fd5b6000848260050154610b069190611928565b9050803414610b4a576040517f08c379a0000000000000000000000000000000000000000000000000000000008152600401610b41906119b6565b60405180910390fd5b60008260060160009054906101000a900473ffffffffffffffffffffffffffffffffffffffff1673ffffffffffffffffffffffffffffffffffffffff1634604051610b9490611a07565b60006040518083038185875af1925050503d8060008114610bd1576040519150601f19603f3d011682016040523d82523d6000602084013e610bd6565b606091505b5050905080610c1a576040517f08c379a0000000000000000000000000000000000000000000000000000000008152600401610c1190611a68565b60405180910390fd5b85836008016000828254610c2e91906117ed565b9250508190555060036000815480929190610c489061148f565b91905055507fa1d210a6d635a4ba4507ac34e3460465f1df316f3852bb899f3e4d66e0ce648c878733604051610c8093929190611a88565b60405180910390a18260080154600354945094505050509250929050565b60025481565b604051806101200160405280600081526020016060815260200160608152602001600081526020016060815260200160008152602001600073ffffffffffffffffffffffffffffffffffffffff16815260200160608152602001600081525090565b6000604051905090565b600080fd5b600080fd5b600073ffffffffffffffffffffffffffffffffffffffff82169050919050565b6000610d4582610d1a565b9050919050565b610d5581610d3a565b8114610d6057600080fd5b50565b600081359050610d7281610d4c565b92915050565b6000819050919050565b610d8b81610d78565b8114610d9657600080fd5b50565b600081359050610da881610d82565b92915050565b60008060408385031215610dc557610dc4610d10565b5b6000610dd385828601610d63565b9250506020610de485828601610d99565b9150509250929050565b610df781610d78565b82525050565b6000602082019050610e126000830184610dee565b92915050565b600080fd5b600080fd5b6000601f19601f8301169050919050565b7f4e487b7100000000000000000000000000000000000000000000000000000000600052604160045260246000fd5b610e6b82610e22565b810181811067ffffffffffffffff82111715610e8a57610e89610e33565b5b80604052505050565b6000610e9d610d06565b9050610ea98282610e62565b919050565b600067ffffffffffffffff821115610ec957610ec8610e33565b5b610ed282610e22565b9050602081019050919050565b82818337600083830152505050565b6000610f01610efc84610eae565b610e93565b905082815260208101848484011115610f1d57610f1c610e1d565b5b610f28848285610edf565b509392505050565b600082601f830112610f4557610f44610e18565b5b8135610f55848260208601610eee565b91505092915050565b60008060008060008060c08789031215610f7b57610f7a610d10565b5b600087013567ffffffffffffffff811115610f9957610f98610d15565b5b610fa589828a01610f30565b965050602087013567ffffffffffffffff811115610fc657610fc5610d15565b5b610fd289828a01610f30565b9550506040610fe389828a01610d99565b945050606087013567ffffffffffffffff81111561100457611003610d15565b5b61101089828a01610f30565b935050608061102189828a01610d99565b92505060a087013567ffffffffffffffff81111561104257611041610d15565b5b61104e89828a01610f30565b9150509295509295509295565b60006020828403121561107157611070610d10565b5b600061107f84828501610d99565b91505092915050565b600081519050919050565b600082825260208201905092915050565b60005b838110156110c25780820151818401526020810190506110a7565b60008484015250505050565b60006110d982611088565b6110e38185611093565b93506110f38185602086016110a4565b6110fc81610e22565b840191505092915050565b600061111282610d1a565b9050919050565b61112281611107565b82525050565b60006101208201905061113e600083018c610dee565b8181036020830152611150818b6110ce565b90508181036040830152611164818a6110ce565b90506111736060830189610dee565b818103608083015261118581886110ce565b905061119460a0830187610dee565b6111a160c0830186611119565b81810360e08301526111b381856110ce565b90506111c3610100830184610dee565b9a9950505050505050505050565b600081519050919050565b600082825260208201905092915050565b6000819050602082019050919050565b61120681610d78565b82525050565b600082825260208201905092915050565b600061122882611088565b611232818561120c565b93506112428185602086016110a4565b61124b81610e22565b840191505092915050565b61125f81611107565b82525050565b60006101208301600083015161127e60008601826111fd565b5060208301518482036020860152611296828261121d565b915050604083015184820360408601526112b0828261121d565b91505060608301516112c560608601826111fd565b50608083015184820360808601526112dd828261121d565b91505060a08301516112f260a08601826111fd565b5060c083015161130560c0860182611256565b5060e083015184820360e086015261131d828261121d565b9150506101008301516113346101008601826111fd565b508091505092915050565b600061134b8383611265565b905092915050565b6000602082019050919050565b600061136b826111d1565b61137581856111dc565b935083602082028501611387856111ed565b8060005b858110156113c357848403895281516113a4858261133f565b94506113af83611353565b925060208a0199505060018101905061138b565b50829750879550505050505092915050565b600060208201905081810360008301526113ef8184611360565b905092915050565b6000806040838503121561140e5761140d610d10565b5b600061141c85828601610d99565b925050602061142d85828601610d99565b9150509250929050565b600060408201905061144c6000830185610dee565b6114596020830184610dee565b9392505050565b7f4e487b7100000000000000000000000000000000000000000000000000000000600052601160045260246000fd5b600061149a82610d78565b91507fffffffffffffffffffffffffffffffffffffffffffffffffffffffffffffffff82036114cc576114cb611460565b5b600182019050919050565b7f4e487b7100000000000000000000000000000000000000000000000000000000600052602260045260246000fd5b6000600282049050600182168061151e57607f821691505b602082108103611531576115306114d7565b5b50919050565b60008190508160005260206000209050919050565b60006020601f8301049050919050565b600082821b905092915050565b6000600883026115997fffffffffffffffffffffffffffffffffffffffffffffffffffffffffffffffff8261155c565b6115a3868361155c565b95508019841693508086168417925050509392505050565b6000819050919050565b60006115e06115db6115d684610d78565b6115bb565b610d78565b9050919050565b6000819050919050565b6115fa836115c5565b61160e611606826115e7565b848454611569565b825550505050565b600090565b611623611616565b61162e8184846115f1565b505050565b5b818110156116525761164760008261161b565b600181019050611634565b5050565b601f8211156116975761166881611537565b6116718461154c565b81016020851015611680578190505b61169461168c8561154c565b830182611633565b50505b505050565b600082821c905092915050565b60006116ba6000198460080261169c565b1980831691505092915050565b60006116d383836116a9565b9150826002028217905092915050565b6116ec82611088565b67ffffffffffffffff81111561170557611704610e33565b5b61170f8254611506565b61171a828285611656565b600060209050601f83116001811461174d576000841561173b578287015190505b61174585826116c7565b8655506117ad565b601f19841661175b86611537565b60005b828110156117835784890151825560018201915060208501945060208101905061175e565b868310156117a0578489015161179c601f8916826116a9565b8355505b6001600288020188555050505b505050505050565b6117be81610d3a565b82525050565b60006040820190506117d96000830185610dee565b6117e660208301846117b5565b9392505050565b60006117f882610d78565b915061180383610d78565b925082820390508181111561181b5761181a611460565b5b92915050565b7f4e487b7100000000000000000000000000000000000000000000000000000000600052603260045260246000fd5b7f496e76616c69642070726f647563742049440000000000000000000000000000600082015250565b6000611886601283611093565b915061189182611850565b602082019050919050565b600060208201905081810360008301526118b581611879565b9050919050565b7f4e6f7420656e6f7567682073746f636b20617661696c61626c65000000000000600082015250565b60006118f2601a83611093565b91506118fd826118bc565b602082019050919050565b60006020820190508181036000830152611921816118e5565b9050919050565b600061193382610d78565b915061193e83610d78565b925082820261194c81610d78565b9150828204841483151761196357611962611460565b5b5092915050565b7f496e636f727265637420616d6f756e742073656e740000000000000000000000600082015250565b60006119a0601583611093565b91506119ab8261196a565b602082019050919050565b600060208201905081810360008301526119cf81611993565b9050919050565b600081905092915050565b50565b60006119f16000836119d6565b91506119fc826119e1565b600082019050919050565b6000611a12826119e4565b9150819050919050565b7f5061796d656e74206661696c6564000000000000000000000000000000000000600082015250565b6000611a52600e83611093565b9150611a5d82611a1c565b602082019050919050565b60006020820190508181036000830152611a8181611a45565b9050919050565b6000606082019050611a9d6000830186610dee565b611aaa6020830185610dee565b611ab760408301846117b5565b94935050505056fea2646970667358221220e9cbf07afec82f697f5054d5a706948348c5bfe08b94eae3102680f8c053ed4064736f6c63430008180033",
  "linkReferences": {},
  "deployedLinkReferences": {}
}