{
  "_format": "hh-sol-artifact-1",
  "contractName": "Farmer",
  "sourceName": "contracts/Farmer.sol",
  "abi": [
    {
      "anonymous": false,
      "inputs": [
        {
          "indexed": false,
          "internalType": "uint256",
          "name": "productId",
          "type": "uint256"
        },
        {
          "indexed": false,
          "internalType": "address",
          "name": "farmer",
          "type": "address"
        }
      ],
      "name": "ProductAdded",
      "type": "event"
    },
    {
      "anonymous": false,
      "inputs": [
        {
          "indexed": false,
          "internalType": "uint256",
          "name": "productId",
          "type": "uint256"
        },
        {
          "indexed": false,
          "internalType": "uint256",
          "name": "amount",
          "type": "uint256"
        },
        {
          "indexed": false,
          "internalType": "address",
          "name": "buyer",
          "type": "address"
        }
      ],
      "name": "ProductBought",
      "type": "event"
    },
    {
      "inputs": [
        {
          "internalType": "string",
          "name": "_image",
          "type": "string"
        },
        {
          "internalType": "string",
          "name": "_Desc",
          "type": "string"
        },
        {
          "internalType": "uint256",
          "name": "_stock",
          "type": "uint256"
        },
        {
          "internalType": "string",
          "name": "_title",
          "type": "string"
        },
        {
          "internalType": "uint256",
          "name": "_price",
          "type": "uint256"
        },
        {
          "internalType": "string",
          "name": "_typeofprod",
          "type": "string"
        }
      ],
      "name": "AddProduct",
      "outputs": [
        {
          "internalType": "uint256",
          "name": "",
          "type": "uint256"
        }
      ],
      "stateMutability": "nonpayable",
      "type": "function"
    },
    {
      "inputs": [
        {
          "internalType": "uint256",
          "name": "_id",
          "type": "uint256"
        },
        {
          "internalType": "uint256",
          "name": "kg",
          "type": "uint256"
        }
      ],
      "name": "Buyer",
      "outputs": [
        {
          "internalType": "uint256",
          "name": "",
          "type": "uint256"
        },
        {
          "internalType": "uint256",
          "name": "",
          "type": "uint256"
        }
      ],
      "stateMutability": "payable",
      "type": "function"
    },
    {
      "inputs": [],
      "name": "GetAllProducts",
      "outputs": [
        {
          "components": [
            {
              "internalType": "uint256",
              "name": "id",
              "type": "uint256"
            },
            {
              "internalType": "string",
              "name": "Image",
              "type": "string"
            },
            {
              "internalType": "string",
              "name": "Description",
              "type": "string"
            },
            {
              "internalType": "uint256",
              "name": "Stock",
              "type": "uint256"
            },
            {
              "internalType": "string",
              "name": "Title",
              "type": "string"
            },
            {
              "internalType": "uint256",
              "name": "Price",
              "type": "uint256"
            },
            {
              "internalType": "address payable",
              "name": "Farmer",
              "type": "address"
            },
            {
              "internalType": "string",
              "name": "TypeOfProduct",
              "type": "string"
            },
            {
              "internalType": "uint256",
              "name": "StockLeft",
              "type": "uint256"
            }
          ],
          "internalType": "struct Farmer.Product[]",
          "name": "",
          "type": "tuple[]"
        }
      ],
      "stateMutability": "view",
      "type": "function"
    },
    {
      "inputs": [
        {
          "internalType": "address",
          "name": "",
          "type": "address"
        },
        {
          "internalType": "uint256",
          "name": "",
          "type": "uint256"
        }
      ],
      "name": "MyProducts",
      "outputs": [
        {
          "internalType": "uint256",
          "name": "",
          "type": "uint256"
        }
      ],
      "stateMutability": "view",
      "type": "function"
    },
    {
      "inputs": [],
      "name": "buyerCount",
      "outputs": [
        {
          "internalType": "uint256",
          "name": "",
          "type": "uint256"
        }
      ],
      "stateMutability": "view",
      "type": "function"
    },
    {
      "inputs": [],
      "name": "productCount",
      "outputs": [
        {
          "internalType": "uint256",
          "name": "",
          "type": "uint256"
        }
      ],
      "stateMutability": "view",
      "type": "function"
    },
    {
      "inputs": [
        {
          "internalType": "uint256",
          "name": "",
          "type": "uint256"
        }
      ],
      "name": "products",
      "outputs": [
        {
          "internalType": "uint256",
          "name": "id",
          "type": "uint256"
        },
        {
          "internalType": "string",
          "name": "Image",
          "type": "string"
        },
        {
          "internalType": "string",
          "name": "Description",
          "type": "string"
        },
        {
          "internalType": "uint256",
          "name": "Stock",
          "type": "uint256"
        },
        {
          "internalType": "string",
          "name": "Title",
          "type": "string"
        },
        {
          "internalType": "uint256",
          "name": "Price",
          "type": "uint256"
        },
        {
          "internalType": "address payable",
          "name": "Farmer",
          "type": "address"
        },
        {
          "internalType": "string",
          "name": "TypeOfProduct",
          "type": "string"
        },
        {
          "internalType": "uint256",
          "name": "StockLeft",
          "type": "uint256"
        }
      ],
      "stateMutability": "view",
      "type": "function"
    }
  ],
  "bytecode": "0x60806040526000600255600060035534801561001a57600080fd5b50611b358061002a6000396000f3fe6080604052600436106100705760003560e01c806381a17a4a1161004e57806381a17a4a146101345780639e0cea051461015f578063ba0a0cdb1461018a578063e0f6ef87146101bb57610070565b806322412ded146100755780636b7ff01a146100b25780637acc0b20146100ef575b600080fd5b34801561008157600080fd5b5061009c60048036038101906100979190610dba565b6101e6565b6040516100a99190610e09565b60405180910390f35b3480156100be57600080fd5b506100d960048036038101906100d49190610f6a565b610217565b6040516100e69190610e09565b60405180910390f35b3480156100fb57600080fd5b5061011660048036038101906101119190611067565b610426565b60405161012b99989796959493929190611134565b60405180910390f35b34801561014057600080fd5b506101496106b4565b60405161015691906113e1565b60405180910390f35b34801561016b57600080fd5b50610174610a49565b6040516101819190610e09565b60405180910390f35b6101a4600480360381019061019f9190611403565b610a4f565b6040516101b2929190611443565b60405180910390f35b3480156101c757600080fd5b506101d0610caa565b6040516101dd9190610e09565b60405180910390f35b6001602052816000526040600020818154811061020257600080fd5b90600052602060002001600091509150505481565b60006002600081548092919061022c9061149b565b9190505550604051806101200160405280600254815260200188815260200187815260200186815260200185815260200160018561026a91906114e3565b81526020013373ffffffffffffffffffffffffffffffffffffffff1681526020018381526020018681525060008060025481526020019081526020016000206000820151816000015560208201518160010190816102c89190611723565b5060408201518160020190816102de9190611723565b506060820151816003015560808201518160040190816102fe9190611723565b5060a0820151816005015560c08201518160060160006101000a81548173ffffffffffffffffffffffffffffffffffffffff021916908373ffffffffffffffffffffffffffffffffffffffff16021790555060e08201518160070190816103659190611723565b506101008201518160080155905050600160003373ffffffffffffffffffffffffffffffffffffffff1673ffffffffffffffffffffffffffffffffffffffff16815260200190815260200160002060025490806001815401808255809150506001900390600052602060002001600090919091909150557f61394ce83505fd053362beef6b6476dc5cdd4e4dd515dd026ee6ed7f4d473cd06002543360405161040f929190611804565b60405180910390a160025490509695505050505050565b600060205280600052604060002060009150905080600001549080600101805461044f90611546565b80601f016020809104026020016040519081016040528092919081815260200182805461047b90611546565b80156104c85780601f1061049d576101008083540402835291602001916104c8565b820191906000526020600020905b8154815290600101906020018083116104ab57829003601f168201915b5050505050908060020180546104dd90611546565b80601f016020809104026020016040519081016040528092919081815260200182805461050990611546565b80156105565780601f1061052b57610100808354040283529160200191610556565b820191906000526020600020905b81548152906001019060200180831161053957829003601f168201915b50505050509080600301549080600401805461057190611546565b80601f016020809104026020016040519081016040528092919081815260200182805461059d90611546565b80156105ea5780601f106105bf576101008083540402835291602001916105ea565b820191906000526020600020905b8154815290600101906020018083116105cd57829003601f168201915b5050505050908060050154908060060160009054906101000a900473ffffffffffffffffffffffffffffffffffffffff169080600701805461062b90611546565b80601f016020809104026020016040519081016040528092919081815260200182805461065790611546565b80156106a45780601f10610679576101008083540402835291602001916106a4565b820191906000526020600020905b81548152906001019060200180831161068757829003601f168201915b5050505050908060080154905089565b6060600060025467ffffffffffffffff8111156106d4576106d3610e3f565b5b60405190808252806020026020018201604052801561070d57816020015b6106fa610cb0565b8152602001906001900390816106f25790505b5090506000600190505b6002548111610a4157600080828152602001908152602001600020604051806101200160405290816000820154815260200160018201805461075890611546565b80601f016020809104026020016040519081016040528092919081815260200182805461078490611546565b80156107d15780601f106107a6576101008083540402835291602001916107d1565b820191906000526020600020905b8154815290600101906020018083116107b457829003601f168201915b505050505081526020016002820180546107ea90611546565b80601f016020809104026020016040519081016040528092919081815260200182805461081690611546565b80156108635780601f1061083857610100808354040283529160200191610863565b820191906000526020600020905b81548152906001019060200180831161084657829003601f168201915b505050505081526020016003820154815260200160048201805461088690611546565b80601f01602080910402602001604051908101604052809291908181526020018280546108b290611546565b80156108ff5780601f106108d4576101008083540402835291602001916108ff565b820191906000526020600020905b8154815290600101906020018083116108e257829003601f168201915b50505050508152602001600582015481526020016006820160009054906101000a900473ffffffffffffffffffffffffffffffffffffffff1673ffffffffffffffffffffffffffffffffffffffff1673ffffffffffffffffffffffffffffffffffffffff16815260200160078201805461097890611546565b80601f01602080910402602001604051908101604052809291908181526020018280546109a490611546565b80156109f15780601f106109c6576101008083540402835291602001916109f1565b820191906000526020600020905b8154815290600101906020018083116109d457829003601f168201915b5050505050815260200160088201548152505082600183610a12919061182d565b81518110610a2357610a22611861565b5b60200260200101819052508080610a399061149b565b915050610717565b508091505090565b60035481565b60008060008060008681526020019081526020016000209050600085118015610a7a57506002548511155b610ab9576040517f08c379a0000000000000000000000000000000000000000000000000000000008152600401610ab0906118dc565b60405180910390fd5b8381600801541015610b00576040517f08c379a0000000000000000000000000000000000000000000000000000000008152600401610af790611948565b60405180910390fd5b6000848260050154610b129190611968565b9050803414610b56576040517f08c379a0000000000000000000000000000000000000000000000000000000008152600401610b4d906119f6565b60405180910390fd5b60008260060160009054906101000a900473ffffffffffffffffffffffffffffffffffffffff1673ffffffffffffffffffffffffffffffffffffffff1634604051610ba090611a47565b60006040518083038185875af1925050503d8060008114610bdd576040519150601f19603f3d011682016040523d82523d6000602084013e610be2565b606091505b5050905080610c26576040517f08c379a0000000000000000000000000000000000000000000000000000000008152600401610c1d90611aa8565b60405180910390fd5b85836008016000828254610c3a919061182d565b9250508190555060036000815480929190610c549061149b565b91905055507fa1d210a6d635a4ba4507ac34e3460465f1df316f3852bb899f3e4d66e0ce648c878733604051610c8c93929190611ac8565b60405180910390a18260080154600354945094505050509250929050565b60025481565b604051806101200160405280600081526020016060815260200160608152602001600081526020016060815260200160008152602001600073ffffffffffffffffffffffffffffffffffffffff16815260200160608152602001600081525090565b6000604051905090565b600080fd5b600080fd5b600073ffffffffffffffffffffffffffffffffffffffff82169050919050565b6000610d5182610d26565b9050919050565b610d6181610d46565b8114610d6c57600080fd5b50565b600081359050610d7e81610d58565b92915050565b6000819050919050565b610d9781610d84565b8114610da257600080fd5b50565b600081359050610db481610d8e565b92915050565b60008060408385031215610dd157610dd0610d1c565b5b6000610ddf85828601610d6f565b9250506020610df085828601610da5565b9150509250929050565b610e0381610d84565b82525050565b6000602082019050610e1e6000830184610dfa565b92915050565b600080fd5b600080fd5b6000601f19601f8301169050919050565b7f4e487b7100000000000000000000000000000000000000000000000000000000600052604160045260246000fd5b610e7782610e2e565b810181811067ffffffffffffffff82111715610e9657610e95610e3f565b5b80604052505050565b6000610ea9610d12565b9050610eb58282610e6e565b919050565b600067ffffffffffffffff821115610ed557610ed4610e3f565b5b610ede82610e2e565b9050602081019050919050565b82818337600083830152505050565b6000610f0d610f0884610eba565b610e9f565b905082815260208101848484011115610f2957610f28610e29565b5b610f34848285610eeb565b509392505050565b600082601f830112610f5157610f50610e24565b5b8135610f61848260208601610efa565b91505092915050565b60008060008060008060c08789031215610f8757610f86610d1c565b5b600087013567ffffffffffffffff811115610fa557610fa4610d21565b5b610fb189828a01610f3c565b965050602087013567ffffffffffffffff811115610fd257610fd1610d21565b5b610fde89828a01610f3c565b9550506040610fef89828a01610da5565b945050606087013567ffffffffffffffff8111156110105761100f610d21565b5b61101c89828a01610f3c565b935050608061102d89828a01610da5565b92505060a087013567ffffffffffffffff81111561104e5761104d610d21565b5b61105a89828a01610f3c565b9150509295509295509295565b60006020828403121561107d5761107c610d1c565b5b600061108b84828501610da5565b91505092915050565b600081519050919050565b600082825260208201905092915050565b60005b838110156110ce5780820151818401526020810190506110b3565b60008484015250505050565b60006110e582611094565b6110ef818561109f565b93506110ff8185602086016110b0565b61110881610e2e565b840191505092915050565b600061111e82610d26565b9050919050565b61112e81611113565b82525050565b60006101208201905061114a600083018c610dfa565b818103602083015261115c818b6110da565b90508181036040830152611170818a6110da565b905061117f6060830189610dfa565b818103608083015261119181886110da565b90506111a060a0830187610dfa565b6111ad60c0830186611125565b81810360e08301526111bf81856110da565b90506111cf610100830184610dfa565b9a9950505050505050505050565b600081519050919050565b600082825260208201905092915050565b6000819050602082019050919050565b61121281610d84565b82525050565b600082825260208201905092915050565b600061123482611094565b61123e8185611218565b935061124e8185602086016110b0565b61125781610e2e565b840191505092915050565b61126b81611113565b82525050565b60006101208301600083015161128a6000860182611209565b50602083015184820360208601526112a28282611229565b915050604083015184820360408601526112bc8282611229565b91505060608301516112d16060860182611209565b50608083015184820360808601526112e98282611229565b91505060a08301516112fe60a0860182611209565b5060c083015161131160c0860182611262565b5060e083015184820360e08601526113298282611229565b915050610100830151611340610100860182611209565b508091505092915050565b60006113578383611271565b905092915050565b6000602082019050919050565b6000611377826111dd565b61138181856111e8565b935083602082028501611393856111f9565b8060005b858110156113cf57848403895281516113b0858261134b565b94506113bb8361135f565b925060208a01995050600181019050611397565b50829750879550505050505092915050565b600060208201905081810360008301526113fb818461136c565b905092915050565b6000806040838503121561141a57611419610d1c565b5b600061142885828601610da5565b925050602061143985828601610da5565b9150509250929050565b60006040820190506114586000830185610dfa565b6114656020830184610dfa565b9392505050565b7f4e487b7100000000000000000000000000000000000000000000000000000000600052601160045260246000fd5b60006114a682610d84565b91507fffffffffffffffffffffffffffffffffffffffffffffffffffffffffffffffff82036114d8576114d761146c565b5b600182019050919050565b60006114ee82610d84565b91506114f983610d84565b92508282019050808211156115115761151061146c565b5b92915050565b7f4e487b7100000000000000000000000000000000000000000000000000000000600052602260045260246000fd5b6000600282049050600182168061155e57607f821691505b60208210810361157157611570611517565b5b50919050565b60008190508160005260206000209050919050565b60006020601f8301049050919050565b600082821b905092915050565b6000600883026115d97fffffffffffffffffffffffffffffffffffffffffffffffffffffffffffffffff8261159c565b6115e3868361159c565b95508019841693508086168417925050509392505050565b6000819050919050565b600061162061161b61161684610d84565b6115fb565b610d84565b9050919050565b6000819050919050565b61163a83611605565b61164e61164682611627565b8484546115a9565b825550505050565b600090565b611663611656565b61166e818484611631565b505050565b5b818110156116925761168760008261165b565b600181019050611674565b5050565b601f8211156116d7576116a881611577565b6116b18461158c565b810160208510156116c0578190505b6116d46116cc8561158c565b830182611673565b50505b505050565b600082821c905092915050565b60006116fa600019846008026116dc565b1980831691505092915050565b600061171383836116e9565b9150826002028217905092915050565b61172c82611094565b67ffffffffffffffff81111561174557611744610e3f565b5b61174f8254611546565b61175a828285611696565b600060209050601f83116001811461178d576000841561177b578287015190505b6117858582611707565b8655506117ed565b601f19841661179b86611577565b60005b828110156117c35784890151825560018201915060208501945060208101905061179e565b868310156117e057848901516117dc601f8916826116e9565b8355505b6001600288020188555050505b505050505050565b6117fe81610d46565b82525050565b60006040820190506118196000830185610dfa565b61182660208301846117f5565b9392505050565b600061183882610d84565b915061184383610d84565b925082820390508181111561185b5761185a61146c565b5b92915050565b7f4e487b7100000000000000000000000000000000000000000000000000000000600052603260045260246000fd5b7f496e76616c69642070726f647563742049440000000000000000000000000000600082015250565b60006118c660128361109f565b91506118d182611890565b602082019050919050565b600060208201905081810360008301526118f5816118b9565b9050919050565b7f4e6f7420656e6f7567682073746f636b20617661696c61626c65000000000000600082015250565b6000611932601a8361109f565b915061193d826118fc565b602082019050919050565b6000602082019050818103600083015261196181611925565b9050919050565b600061197382610d84565b915061197e83610d84565b925082820261198c81610d84565b915082820484148315176119a3576119a261146c565b5b5092915050565b7f496e636f727265637420616d6f756e742073656e740000000000000000000000600082015250565b60006119e060158361109f565b91506119eb826119aa565b602082019050919050565b60006020820190508181036000830152611a0f816119d3565b9050919050565b600081905092915050565b50565b6000611a31600083611a16565b9150611a3c82611a21565b600082019050919050565b6000611a5282611a24565b9150819050919050565b7f5061796d656e74206661696c6564000000000000000000000000000000000000600082015250565b6000611a92600e8361109f565b9150611a9d82611a5c565b602082019050919050565b60006020820190508181036000830152611ac181611a85565b9050919050565b6000606082019050611add6000830186610dfa565b611aea6020830185610dfa565b611af760408301846117f5565b94935050505056fea26469706673582212206b0be90eb68776f2a8f5f9d4f0e91f5c4efebde334786c555262ff659c14b96564736f6c63430008180033",
  "linkReferences": {},
  "deployedLinkReferences": {}
}